:020000000A28CC
:10000800FE00030EF0000A08F1000F290B28AF01CB
:100018005030B00083016D28AA002030A4002A08BF
:10002800AA0A8400CE20AC00AC0803190800253ABF
:10003800031921282C08352113282A08AA0A840024
:10004800CE20AC00003A03196C28783A03192D2801
:1000580013282408840083130008A600840A0008D3
:10006800A700A40AA40AAC01AC0A03102C0D013E97
:100078008400CE20F900CE20FA002702031D46286E
:1000880079082602031C4D28AC0A2C08043A031DE3
:1000980039282C08AB0068282708F5002608F40042
:1000A80003102B0D013E8400CE20F200CE20F30079
:1000B800A4207208A5000F30A5052508093E840074
:1000C800CE20AC002C083521AB032B0F5028132869
:1000D80008003B212921F42041308312AE00EE3084
:1000E800AD00AD0B7528AE0B752800008312031305
:1000F8002F0803197A280B1286140730AE007D30BA
:10010800AD00AD0B8528AE0B8528EA3083120313AA
:10011800A000A1013008A2001A30A301102062300B
:10012800AE006530AD00AD0B9728AE0B97289C2824
:10013800831203138610AF018B100B1663007A2805
:10014800F601F701730872040319C928F801F80ABF
:10015800F31BB2280310F20DF30DAB280310F60DB4
:10016800F70D73087502031DBB2872087402031C7F
:10017800C5287208F4027308031CF503F502761407
:100188000310F30CF20CF80BB2287708F30076088A
:10019800F200080000308A000408840A820700344C
:1001A8000134003410340034003401340034103485
:1001B80030343134323433343434353436343734FB
:1001C80038343934613462346334643465346634C1
:1001D800003425347834253478340A340D34003426
:1001E80086018501013083168600113083129F0035
:1001F80083168501F830810581118112011281135E
:100208008312061C0A29831601130C298316011769
:100218000B168B1708008B1C222983160313011F4A
:1002280018290113A0301A29011750308312B00081
:100238008B10AF0803190B12AF01AF0A71088A00BF
:10024800700E8300FE0E7E0E090081308316990021
:10025800981718131812181118149816831298174B
:100268000800F2000C1E36297208990008000800E0
:02400E0062FF4F
:00000001FF
