:020000000C28CA
:10000800FE00030EF2000408F3000A08F400782842
:100018000D28F601F701CC01CD01CE01CF01D001A9
:10002800D101D201D30183012629C300C101C20134
:1000380043087E2121084202031D2428200841028A
:10004800380803186028A3003708A2003608A10062
:100058003508A0003C08A7003B08A6003A08A50000
:100068003908A400A801A901AA01AB014108430766
:10007800BD0084000008D5202308BC002208BB006E
:100088002108BA002008B900C10A0319C20A1C28AD
:10009800FF30B906BA063A08C0003908BF00BE00EA
:1000A800BD0140083D07B9000030031801303E0784
:1000B800BA00BB01BC017328003A03196E287328E3
:1000C8003608A63A0319692873283508BC3A031973
:1000D8004C2873283708003A0319642873283A080B
:1000E800B6003908B50008008B180B1E83283C3071
:1000F8008312031381000B118B168B10CC288312EB
:1001080003138C1EA1289C21F500043076020318E5
:10011800952876084E3E8400750883138000F60AF9
:100128009728CD01CD0A75080A3A0319F601750812
:100138000D3A031DCC28F601CC280B1DCC287708D6
:100148000319C7288316010EF000F00C700C013952
:10015800F10000308312061801307106031DC4280F
:1001680003108316011F031483160313031CBE28F0
:100178000117BF2801138312CC01CC0A8B100B1670
:10018800F7018B12C928F701F70A3C3081000B11DF
:1001980074088A0073088400720E8300FE0E7E0EB7
:1001A8000900AC00B100B201B301B4012408B106E2
:1001B8002508B2062608B3062708B406AD01AE0125
:1001C800AF01B001311CF628340DB40CB30CB20CDD
:1001D800B10C2008B1062108B2062208B30623088C
:1001E800B406FB28340DB40CB30CB20CB10CAD0A38
:1001F8000319AE0A0319AF0A0319B00A3008803A86
:10020800FF0080307F02031D132900302F02031DD9
:10021800132900302E02031D132908302D02031C58
:10022800E6282808B1062908B2062A08B3062B08CA
:10023800B4063408A3003308A2003208A10031082C
:10024800A0000800992182308312CB00DD30CA005B
:10025800CA0B2C29CB0B2C29312947218F214C087B
:10026800031939290830CC0186064D0803193329AA
:100278004E30CD01F601682145084404031D332999
:10028800083086063329831203138601850103305B
:1002980083168600113083129F008316850107306C
:1002A8008104811181120112811301178C160B1719
:1002B8008B178312061C632983160113652983167D
:1002C80001178B100B160800C900A030B801B70140
:1002D800B6000130B500B901BA01BB01BC0149083B
:1002E80019203608C8003508C7004808C50047085F
:1002F800C4000800A300A400240884008313800815
:1003080003198829A40A802923082402A000A1012E
:10031800A01BA103080081309900831218138316CB
:100328001812831218169817080083168E110800E1
:040338001A08080097
:02400E0070FF41
:00000001FF
