:020000000A28CC
:10000800FE00030EF0000A08F1008D290B2831309C
:10001800C001B5005930B600D530B700AA30B800D5
:100028003130B901BA004E30BB009530BC00A43065
:10003800BD004E30BE01BF008301A328A300793064
:10004800A2002308A30A84000A21A800A80803190B
:100058000800253A031952282808B421252822081F
:1000680084000008A400A501A20A2504031D402855
:100078002C30A4008030A5002508FF002408840047
:1000880000210038031925282508FF0024088400CA
:100098000021B421A40A0319A50A40282308A30AA9
:1000A80084000A21A800003A0319A228583A031923
:1000B80064282B3A031933280B3A03196428252896
:1000C800220884000008A400840A0008A500A20AE7
:1000D800A20AA801A80A0310280D013E84000A21DB
:1000E800FA000A21FB002502031D7C287A08240255
:1000F800031C8328A80A2808043A031D6F28280827
:10010800A1009E282508F5002408F4000310210DFD
:10011800013E84000A21F2000A21F30047217208F7
:10012800A0000F30A00520081B3E84000A21A8006B
:100138002808B421A103210F862825280800BA2100
:10014800A72171212B308400831235088000840A8E
:1001580036088000840A37088000840A380880003E
:10016800840A39088000303084003A088000840A04
:100178003B088000840A3C088000840A3D0880000F
:10018800840A3E0880000611861083120313400873
:100198000319F2280B12981786150D30AA00FB30A8
:1001A800A900A90BD528AA0BD528DA28831203138E
:1001B8003F08593A031DE2282B30E7283F084E3AFA
:1001C800031DEA283030F900333022208316981CAA
:1001D800EA2883128611C0018B100B16981306119A
:0401E8006300C928BF
:10020000FF1B0A2983137F1883170008840A031928
:10021000FF0A080001308A000408840A82070034BB
:10022000013400341034003400340134003410340C
:1002300025347334203465346C34203463347234A0
:1002400063342034653473343A34253458340A34F2
:100250000D340034303431343234333434343534C2
:100260003634373438343934413442344334443406
:1002700045344634003428346E3475346C346C3470
:10028000293400340A34253473340D340034F60133
:10029000F7017308720403196C29F801F80AF31BBB
:1002A00055290310F20DF30D4E290310F60DF70D2D
:1002B00073087502031D5E2972087402031C682905
:1002C0007208F4027308031CF503F5027614031098
:1002D000F30CF20CF80B55297708F3007608F200BE
:1002E00008008601850101308316860011308312D3
:1002F0009F0083168501F83081058111811201125A
:1003000081178312061C87298316011389298316F6
:1003100001178B100B168B1708008B1CA029831656
:100320000313011F962901135930982901174E30E4
:100330008312BF008B10C00803190B12C001C00A42
:1003400071088A00700E8300FE0E7E0E0900813057
:100350008316990098171813181218111814981664
:100360008312981318120800F2000C1EB5297208A7
:06037000990008000800DE
:02400E0070FF41
:00000001FF
